:1000000004308A00DF2C00000A108A100A118207CF
:1000100028340C34013406348C12EC3A2029D026D2
:1000200000000C28EF39E931E937EE306E326F17F6
:100030002E1700000C182029D02600008C12EC3A54
:100040002029D026201061323A10253675008E30D6
:10005000F7004408F8004308F900FA01F808031D06
:100060003B287908F800F9010830F702F808031D69
:100070003B28F70143280310F81B4228F90DF80D1F
:10008000F7033B28F8130800430803190929CF0098
:10009000470803190929CF02031C53287F30CF07D3
:1000A0000318092959288130CF02031C0929031993
:1000B00009294F08F700F801F901FA01CE014408B7
:1000C000CD00CD174508CC004608CB001930CF0035
:1000D0004A08CB0203187C280130CC0203187C2884
:1000E000CD0203187C28CE0203187C28CE0ACD0A44
:1000F000CC0A4A08CB07AE284908CC020318972837
:100100000130CD0203189728CE0203189728CE0A93
:10011000CD0A4908CC074A08CB07031CAE28CC0AF5
:10012000031DAE28CD0A031DAE28CE0AAE2848080E
:100130008038CD020318AD280130CE020318AD2857
:10014000CE0A48088038CD074908CC07031C8B2805
:10015000CD0A031D8B28CE0A8B287A14CF0BB12829
:10016000BC280310CB0DCC0DCD0DCE0D0310FA0D18
:10017000F90DF80DD00D6828501CC4280310F80C98
:10018000F90CFA0CD00CC728F70303190929D01B66
:10019000F0280310CB0DCC0DCD0DCE0D4A08CB02AF
:1001A0000318DC280130CC020318DC28CD02031828
:1001B000DC28CE02031CFF284908CC020318E728DC
:1001C0000130CD020318E728CE02031CFF2848089F
:1001D0008038CD020318F0280130CE02031CFF281E
:1001E000FA0A031DFF28F90A031DFF28F80A031D58
:1001F000FF28F70A03190929F80CF90CFA0C44082E
:10020000CF004808CF06CF1F0729F8170D29F8138C
:100210000D29F701F801F901FA018A110A12292DB5
:100220004D30840083130008031924290130F8009D
:10023000F701F70B1929F80B18294A30F700F70BCB
:100240001F292229800B1629080054182929071272
:100250002A29071620122008831687008312D41833
:100260003329871234298716A012200883168700A5
:10027000831254193D2907133E290717201320081C
:10028000831687008312D4194729871348298717B3
:10029000A013200883168700000083122010200876
:1002A000831687008312071455292010200883160F
:1002B0008700831207100800A0102008831687000B
:1002C000831287101330F700F70B64296729D108D0
:1002D00003197129A0102008831687008312871440
:1002E0007729A0102008831687008312871000004A
:1002F000201020088316870083120710520ED300A7
:100300000F30D3055308D400252152080F39D300EC
:10031000D40025210800A01020088316870083122E
:1003200087102010200883168700831207100F30D3
:10033000CD001021BF013F08023C031CA729033058
:10034000D40025210530CD001021BF0A9B290230A1
:10035000D4002521BF013F08033C031CBB293F08F3
:100360000420C000D1014008D2005C210530CD003E
:100370001021BF0AAB298A110A12322D4C080C3AFF
:100380000319C929063A0319D129023A0319E729A1
:10039000EC29D1010130D2005C210230CD001021C6
:1003A000F2290130CD000230CE004E0BD829DB29D6
:1003B0004030CF00DC29CF0101304D02CF074F087C
:1003C0008038D000D1015008D2005C21F229D1013F
:1003D0001030D2005C21F2290130D1004C08D2004B
:1003E0005C21F22908000B08BF008B13831603174A
:1003F0008C170C140000000083120C087F390319BD
:100400003A2A0313C00003170D080313C100031792
:100410000F080313C2004008CC00BE214108031797
:100420008D000313420803178F0083168C170C14DA
:100430000000000083120C0D0E0D7F3903193A2ABB
:100440000313C00003170D080313C10003170F089F
:100450000313C2004008CC00BE21410803178D00E1
:100460000313420803178F008D0A03198F0A031321
:10047000F62903170313BF1B8B1708002908440232
:10048000031C4F2A031D482A4308280203184F2A39
:1004900001302807C3002908C4000318C40A2E0825
:1004A0004302C5004408C6002F08031C2F0FC602D4
:1004B0004408AF004308AE00A101C608031D642A2A
:1004C000450821020318842AAC0A0319AD0AAD1BA2
:1004D000722AAD08031D702A2C08033C0318722AE7
:1004E000AD01AC013B302C07840083132D1883171A
:1004F0000008C70083168601831247088600033070
:10050000CD001021A10A5D2A0800F801F901F701C8
:10051000FA014208031D8F2A41080319A92A103045
:10052000C3000310BF0DC00DF70DFA0D42087A028B
:10053000031D9C2A41087702031CA52A4108F702E3
:10054000031CFA034208FA020314F80DF90DC30B59
:10055000912A8A110A12722D410803191C2BC90015
:10056000450803191C2BC9070318BD2A7F30C9028F
:10057000031C1C2B03191C2BC12A8130C90703182B
:100580001C2B4908F700F801F901FA014208CD00D7
:10059000CD174308CC004408CB001830C900CA016D
:1005A0004B1CEA2A4808FA07031CDC2AF90A031D37
:1005B000DC2AF80A0319CA174708F907031CE32ABB
:1005C000F80A0319CA174608C300C3174308F807F7
:1005D0000318CA17CA0DF80CF90CFA0CCD0CCC0C88
:1005E000CB0C0310C90BCF2A0130F70703181C2BC3
:1005F000F81B012BCD0DFA0DF90DF80DF7030319BA
:100600001C2BCD1F122BFA0A031D122BF90A031DF6
:10061000122BF80A031D122BF80CF90CFA0CF70A2E
:1006200003191C2B4208CA004608CA06CA1F1A2B07
:10063000F817202BF813202BF701F801F901FA0124
:1006400008008E30F7004108F7024208F90043081D
:10065000F800F917F7080319382B0310F908031DE0
:10066000342BF8080319382BF90CF80CF70B2D2B49
:10067000C21F3F2BF809F909F80A0319F90A080003
:100680001030C500F701FA01C20CC10C031C4E2B3F
:100690004308F7070318FA0A4408FA07FA0CF70C9C
:1006A000F90CF80CC50B442B0800CB010408CA0058
:1006B0004B10831B4B14440EF038C600C607E23EB5
:1006C000C700323EC90044080F39C707C707C9072A
:1006D000E93EC800C807C807430E0F39C807C90755
:1006E000C80DC90DC909C90D43080F39C907C60D81
:1006F0000730C5000A30C907C803031C7B2BC80795
:10070000C703031C7F2BC707C603031C832BC60725
:10071000C503031C872B45308400831307304A052B
:100720004A1384074930040203194A170008F700E6
:10073000031DA22B4A1BA22B4A1AB42BCA19A22BA7
:100740002030A52BCA154A123030F707C40104081F
:10075000C3004410831B44147708CC00BE21430817
:100760008400831344188317840A4A1F922B0800BD
:100770000B08C4008B13831603178C170C1400008E
:1007800000000318EA2B83120C087F390313C500FD
:1007900003170D080313C60003170F080313C70040
:1007A0004508CC00BE21460803178D0003134708F7
:1007B00003178F0083168C170C140000000083129F
:1007C0000313C30BE42BE72B83160317EA2B092C27
:1007D0008316031783120C0D0E0D7F390313C5000A
:1007E00003170D080313C60003170F080313C700F0
:1007F0004508CC00BE21460803178D0003134708A7
:1008000003178F008D0A03198F0A03100313C30BFC
:10081000BB2BC41B8B17080031084002031C432C60
:10082000031D162C3F0830020318432C4008C40057
:100830003F08C30027207A08C4007908C30078085D
:10084000C2007708C1003708C8003608C70035085D
:10085000C6003408C500AC227A08C4007908C30079
:100860007808C2007708C10021237908C2007808FF
:10087000C1007908C4007808C3003E224008B100D6
:100880003F08B000BC2C40083102031CBC2C031DE7
:100890004D2C30083F020318BC2C4008C4003F0810
:1008A000C30027207A08C4007908C3007808C20072
:1008B0007708C1003708C8003608C7003508C600E9
:1008C0003408C500AC227A08C4007908C30078084F
:1008D000C2007708C10021237908C2007808C1004E
:1008E0004208C4004108C30043082E02C5002F0877
:1008F000C6004408031C440FC6024408AF00430866
:10090000AE002F084402031C912C031D8B2C4308BE
:100910002E020318912C2F08C6002E08C500AF0127
:10092000AE014408AF004308AE00A101C608031D94
:100930009D2C450821020318B82C2C080319AD037F
:10094000AC03AD1FA62CAD010330AC003B302C072F
:10095000840083132D1883170008C70083168601AF
:100960008312470886000330CD001021A10A962C7F
:100970004008B1003F08B0003108C2003008C10093
:10098000C4016430C30040237908C2007808C10064
:100990000C30CC00BE21103084004208C400410855
:1009A000C30055230E3003178D0000308F00031055
:1009B00004300313C300B8238A110A127B2D84016B
:1009C00083131F308305FF30A0000330A100A20174
:1009D000AD01AC01AF01AE01B101B001B301B20193
:1009E00083161F149F141F159F1107309C000C3095
:1009F0008312BB000630BC000330BD000930BE00CE
:100A0000AB013C30AA00A901A730A8002908C40006
:100A10002808C30027207708BF007808C00079089D
:100A2000C1007A08C2002B08C4002A08C30027208E
:100A30004208C6004108C5004008C4003F08C30082
:100A40007A08CA007908C9007808C8007708C70082
:100A500044287A08B7007908B6007808B500770806
:100A6000B4008B296430CD00102183161F109F1411
:100A70001F159F151F1783121F179F1383169F178C
:100A800083121F140030F8001F08C73978049F0034
:100A90000630F700F70B4A2D0000113003178D00C8
:100AA00000308F000313F321C4017530C3003E22D0
:100AB000AF01AE011A3003178D0000308F00031311
:100AC000F3211F151F19622D83161E088312A6001D
:100AD0001E08A7002708C0002608BF00C2010F306B
:100AE000C100852A7908B3007808B2003308C00035
:100AF0003208BF000C2C3308C2003208C100C40108
:100B00006430C30040237908C0007808BF000C306F
:100B1000CC00BE21103084004008C4003F08C30050
:100B20005523203003178D0000308F0003100A304A
:100B30000313C300B823103084002708C40026081C
:0E0B4000C30055231430CD001021612D630039
:02400E00713F00
:00000001FF
;PIC16F877A
;CRC=8193  CREATED="30-mar-16 10:44"
