:1000000006308A00422E00000A108A100A11820768
:1000100028340C34013406340C28EF39E931E9373F
:10002000EE306E326F172E1700000C182029D026E4
:1000300000008C12EC3A2029D026201061323A10B0
:100040002536750050080319E728DC005408031909
:10005000E728DC02031C31287F30DC070318E7287F
:1000600037288130DC02031CE7280319E7285C08E5
:10007000F700F801F901FA01DB015108DA00DA179B
:100080005208D9005308D8001930DC005708D802AC
:1000900003185A280130D90203185A28DA02031823
:1000A0005A28DB0203185A28DB0ADA0AD90A570849
:1000B000D8078C285608D902031875280130DA02AF
:1000C00003187528DB0203187528DB0ADA0A5608BC
:1000D000D9075708D807031C8C28D90A031D8C2878
:1000E000DA0A031D8C28DB0A8C2855088038DA02CE
:1000F00003188B280130DB0203188B28DB0A550814
:100100008038DA075608D907031C6928DA0A031D64
:100110006928DB0A69287A14DC0B8F289A280310D7
:10012000D80DD90DDA0DDB0D0310FA0DF90DF80D10
:10013000DD0D46285D1CA2280310F80CF90CFA0C02
:10014000DD0CA528F7030319E728DD1BCE280310D3
:10015000D80DD90DDA0DDB0D5708D8020318BA28CF
:100160000130D9020318BA28DA020318BA28DB02D0
:10017000031CDD285608D9020318C5280130DA020D
:100180000318C528DB02031CDD2855088038DA0275
:100190000318CE280130DB02031CDD28FA0A031DF8
:1001A000DD28F90A031DDD28F80A031DDD28F70AFA
:1001B0000319E728F80CF90CFA0C5108DC00550873
:1001C000DC06DC1FE528F817EB28F813EB28F7010D
:1001D000F801F901FA0108008E30F7005908F8001B
:1001E0005808F900FA01F808031D00297908F800F9
:1001F000F9010830F702F808031D0029F701082962
:100200000310F81B0729F90DF80DF7030029F8135F
:1002100008005C3084008313000803191D29013095
:10022000F800F701F70B1229F80B11294A30F700F3
:10023000F70B18291B29800B0F29080063182229A6
:10024000071223290716201220088316870083121D
:10025000E3182C2987122D298716A012200883164F
:1002600087008312631936290713372907172013CC
:100270002008831687008312E31940298713412938
:100280008717A01320088316870000008312201010
:10029000200883168700831207144E292010200897
:1002A00083168700831207100800A0102008831609
:1002B0008700831287101330F700F70B5D29602940
:1002C000E00803196A29A01020088316870083120A
:1002D00087147029A01020088316870083128710C6
:1002E0000000201020088316870083120710610E7B
:1002F000E2000F30E2056208E3001E2161080F39B9
:10030000E200E3001E210800A010200883168700E9
:10031000831287102010200883168700831207108D
:100320000F30DC000921D0015008023C031CA02939
:100330000330E3001E210530DC000921D00A942996
:100340000230E3001E21D0015008033C031CB429F5
:1003500050080420D100E0015108E100552105308A
:10036000DC000921D00AA4298A110A12B32E5B08E5
:100370000C3A0319C229063A0319CA29023A031989
:10038000E029E529E0010130E10055210230DC00DF
:100390000921EB290130DC000230DD005D0BD129A1
:1003A000D4294030DE00D529DE0101305C02DE07B1
:1003B0005E088038DF00E0015F08E1005521EB298D
:1003C000E0011030E1005521EB290130E0005B082D
:1003D000E1005521EB2908000B08D0008B13831690
:1003E00003178C170C140000000083120C087F39CF
:1003F0000319332A0313D10003170D080313D20086
:1004000003170F080313D3005108DB00B72152086C
:1004100003178D000313530803178F0083168C17DF
:100420000C140000000083120C0D0E0D7F3903190F
:10043000332A0313D10003170D080313D200031747
:100440000F080313D3005108DB00B721520803172C
:100450008D000313530803178F008D0A03198F0AA9
:100460000313EF2903170313D01B8B1708008E30DB
:10047000F7005808F7025908F9005A08F800F91768
:10048000F70803194E2A0310F908031D4A2AF80831
:1004900003194E2AF90CF80CF70B432AD91F552AD9
:1004A000F809F909F80A0319F90A08005508D900EA
:1004B0005408D800EC204708DB004608DA0045085D
:1004C000D9004408D8007A08DF007908DE007808EF
:1004D000DD007708DC005908E0005D08E006E01F59
:1004E000762A03110310D91B0314A92A5908E00026
:1004F0005C08E1005808E1020319842AE01FA92AD8
:100500000308013A8300A92A5D08E1005908E102C5
:100510000319902AE01FA92A0308013A8300A92A97
:100520005E08E1005A08E10203199C2AE01FA92A8B
:100530000308013A8300A92A5F08E1005B08E10291
:100540000319A82AE01FA92A0308013A8300A92A4F
:100550000310031C062C83104708DB004608DA0052
:100560004508D9004408D800DF01DE01DD017F30F5
:10057000DC0080308318DD06E201E3015908E10068
:100580005D08E10658080319A92BE000F7005C0894
:100590000319B22BE00203194E2B031C0C2B5D0830
:1005A000E600E6175E08E5005F08E400E3010310DB
:1005B000E60CE50CE40CE30CE00BD62AE11FE32A81
:1005C0006214C62B6210601062165B3084008313C5
:1005D000DB2B6212E11BF62A601C012BE60CE50CFA
:1005E000E40CE30CF70A0319C12B012BE61B042BC7
:1005F0000310E30DE40DE50DE60DF7030319C12B20
:10060000F62A62176E2B62135908E100E11F0A2BCC
:10061000E617BA2BE613BA2B5C08E000F70058087F
:10062000E0025908E600E6175A08E5005B08E40016
:10063000E3010310E60CE50CE40CE30CE00B182BD3
:10064000E11F252BE214C62BE2106010E2165F308A
:1006500084008313DB2BE212E11B382B601C432B3D
:10066000E60CE50CE40CE30CF70A0319C12B432B51
:10067000E61B462B0310E30DE40DE50DE60DF70335
:100680000319C12B382BE2176E2BE2135D08E10032
:10069000E11F4C2BE617BA2BE613BA2B5D08E600D8
:1006A000E6175E08E5005F08E400E11F5B2BE61338
:1006B0006215C62B6211E30160105B308400831366
:1006C000DB2BE11B842B5908E100601C6E2BE60C30
:1006D000E50CE40CE30CF70A0319C12BE31F7F2B95
:1006E000E40A031D7F2BE50A031D7F2BE60A031D89
:1006F0007F2BE60CE50CE40CF70A0319C12B621BF7
:10070000032BE21B452BA32B8030E606E61F8C2B28
:10071000C62B5D08E100992B5908E100E608031D8E
:10072000992BE508031D992BE408031D992BF7016C
:10073000BA2BE61BA32B0310E30DE40DE50DE60D2C
:10074000F70B992BC12BE11FA72BE617BA2BE6134A
:10075000BA2B5C08F7005D08E6005E08E5005F085C
:10076000E400BA2B5808F7005908E6005A08E500DB
:100770005B08E4006608F8006508F9006408FA0000
:10078000F92BF701F801F901FA01F92BE301E4096A
:10079000E509E609E309E30A031DD42BE40A031D76
:1007A000D42BE50A0319E60A6218E22AE218242B80
:1007B00062195A2B892B0008E407031CE52BE50A74
:1007C000031DE52BE60A0319601484030008E507FE
:1007D000031CED2BE60A0319601484030008801F34
:1007E000803AE60703186014621AE92AE21A2B2BF2
:1007F000612B7A08DB007908DA007808D9007708DD
:10080000D80037227908D5007808D4003A08540275
:10081000D6005508D7003B08031C3B0FD7025508EC
:10082000BB005408BA00A201A10122085702031C10
:10083000412C031D1F2C560821020318412CAB0A22
:100840000319AC0AAC1B2D2CAC08031D2B2C2B0858
:10085000033C03182D2CAC01AB0148302B0784005E
:1008600083132C1883170008D8008316860183127F
:10087000580886000530DC000921A10A0319A20AE4
:10088000152C0800F801F901F701FA015308031DBE
:100890004C2C52080319662C1030D4000310D00DD4
:1008A000D10DF70DFA0D53087A02031D592C520889
:1008B0007702031C622C5208F702031CFA03530848
:1008C000FA020314F80DF90DD40B4E2C8A110A12FA
:1008D000F42E1030D400F701FA01D10CD00C031C17
:1008E000772C5208F7070318FA0A5308FA07FA0C8C
:1008F000F70CF90CF80CD40B6D2C8A110A12002F8E
:10090000DA010408D9005A10831B5A14530EF03828
:10091000D500D507E23ED600323ED80053080F3945
:10092000D607D607D807E93ED700D707D707520E14
:100930000F39D707D807D70DD80DD809D80D5208C9
:100940000F39D807D50D0730D4000A30D807D703A0
:10095000031CA62CD707D603031CAA2CD607D50345
:10096000031CAE2CD507D403031CB22C54308400D6
:1009700083130730590559138407583004020319AB
:1009800059170008F700031DCD2C591BCD2C591AFF
:10099000DF2CD919CD2C2030D02CD915591230305C
:1009A000F707D3010408D2005310831B53147708B0
:1009B000DB00B72152088400831353188317840A7D
:1009C000591FBD2C08000B08D3008B138316031787
:1009D0008C170C14000000000318152D83120C084E
:1009E0007F390313D40003170D080313D500031731
:1009F0000F080313D6005408DB00B721550803176E
:100A00008D000313560803178F0083168C170C14E0
:100A10000000000083120313D20B0F2D122D83163A
:100A20000317152D342D8316031783120C0D0E0D8D
:100A30007F390313D40003170D080313D5000317E0
:100A40000F080313D6005408DB00B721550803171D
:100A50008D000313560803178F008D0A03198F0AA0
:100A600003100313D20BE62CD31B8B178A110A1227
:100A7000182F5108D9005008D800EC207A08D70068
:100A80007908D6007808D5007708D4004308DB0041
:100A90004208DA004108D9004008D8005408031978
:100AA000BE2DDC0058080319BE2DDC0703185F2D8E
:100AB0007F30DC02031CBE2D0319BE2D632D813057
:100AC000DC070318BE2D5C08F700F801F901FA01F4
:100AD0005508E000E0175608DF005708DE00183020
:100AE000DC00DD015E1C8C2D5B08FA07031C7E2DEB
:100AF000F90A031D7E2DF80A0319DD175A08F907B4
:100B0000031C852DF80A0319DD175908D600D617DE
:100B10005608F8070318DD17DD0DF80CF90CFA0C70
:100B2000E00CDF0CDE0C0310DC0B712D0130F7073D
:100B30000318BE2DF81BA32DE00DFA0DF90DF80DCD
:100B4000F7030319BE2DE01FB42DFA0A031DB42DBF
:100B5000F90A031DB42DF80A031DB42DF80CF90C85
:100B6000FA0CF70A0319BE2D5508DD005908DD06F9
:100B7000DD1FBC2DF817C22DF813C22DF701F801A7
:100B8000F901FA017A08DB007908DA007808D9005F
:100B90007708D80037227908D3007808D2003D08BA
:100BA0005102031CE32D031DD92D50083C020318EC
:100BB000E32D5308D5005208D40056225108BD0039
:100BC0005008BC003F2E51083D02031C3F2E031D60
:100BD000ED2D3C08500203183F2E5308D500520853
:100BE000D40054083A02D6003B08D7005508031C2D
:100BF000550FD7025508BB005408BA003B085502F0
:100C0000031C0E2E031D082E54083A0203180E2E44
:100C10003B08D7003A08D600BB01BA015508BB0013
:100C20005408BA00A201A10122085702031C3B2E5E
:100C3000031D1E2E5608210203183B2E2B080319F4
:100C4000AC03AB03AC1F272EAC010330AB00483024
:100C50002B07840083132C1883170008D8008316F1
:100C600086018312580886000530DC000921A10A9C
:100C70000319A20A142E5108BD005008BC008A11A5
:100C80000A12242F840183131F308305FF30A00034
:100C9000A2010330A100A401A301FF30AC00AB000E
:100CA0005830B3003930B2003430B1007B30B0007E
:100CB000B701B6011630B5008730B400B9013C3039
:100CC000B800BB01BA01BD01BC01BF01BE01831662
:100CD0001F149F141F159F1107309C000C308312A6
:100CE000C8000630C9000330CA000930CB00CC016F
:100CF000CD01CE01CF013708D3003608D200350828
:100D0000D1003408D0003308D7003208D6003108AB
:100D1000D5003008D40022207A08C7007908C60020
:100D20007808C5007708C4003908D9003808D80009
:100D3000EC204708D3004608D2004508D1004408FB
:100D4000D0007A08D7007908D6007808D50077084F
:100D5000D40022207A08C3007908C2007808C100B4
:100D60007708C00084296430DC00092183161F1035
:100D70009F141F159F151F1783121F179F1383168C
:100D80009F1783121F140030F8001F08C73978041A
:100D90009F000630F700F70BCB2E00000C30031736
:100DA0008D0000308F000313EC210930D500533043
:100DB000D4005622BB01BA01153003178D00003054
:100DC0008F000313EC211F151F19E42E83161E0834
:100DD0008312A9001E08AA002A08D1002908D00001
:100DE000D3010F30D200422C7908BF007808BE0032
:100DF0003F08D1003E08D000D3016430D200692CF6
:100E00007908D1007808D0000C30DB00B721103011
:100E100084005108D3005008D20080241B300317EF
:100E20008D0000308F0003100A300313D200E32C32
:100E3000103084002A08D3002908D20080243F08FB
:100E4000D1003E08D000392D1430DC000921E32EFA
:020E500063003D
:02400E00713F00
:00000001FF
;PIC16F877A
;CRC=F86F  CREATED="05-abr-16 16:15"
