:1000000004308A00842C00000A108A100A1182072A
:1000100028340C34013406348C12EC3A2029D026D2
:1000200000000C28EF39E931E937EE306E326F17F6
:100030002E1700000C182029D02600008E30F70063
:100040004A08F8004908F900FA01F808031D3228A7
:100050007908F800F9010830F702F808031D322882
:10006000F7013A280310F81B3928F90DF80DF703AA
:100070003228F8130800490803190029D5004D0853
:1000800003190029D502031C4A287F30D50703181D
:10009000002950288130D502031C002903190029AA
:1000A0005508F700F801F901FA01D4014A08D30014
:1000B000D3174B08D2004C08D1001930D500500896
:1000C000D102031873280130D20203187328D30217
:1000D00003187328D40203187328D40AD30AD20A47
:1000E0005008D107A5284F08D20203188E280130E6
:1000F000D30203188E28D40203188E28D40AD30AF8
:100100004F08D2075008D107031CA528D20A031DA7
:10011000A528D30A031DA528D40AA5284E0880388F
:10012000D3020318A4280130D4020318A428D40A47
:100130004E088038D3074F08D207031C8228D30A01
:10014000031D8228D40A82287A14D50BA828B32844
:100150000310D10DD20DD30DD40D0310FA0DF90DEE
:10016000F80DD60D5F28561CBB280310F80CF90CAF
:10017000FA0CD60CBE28F70303190029D61BE72872
:100180000310D10DD20DD30DD40D5008D102031898
:10019000D3280130D2020318D328D3020318D3285E
:1001A000D402031CF6284F08D2020318DE280130BF
:1001B000D3020318DE28D402031CF6284E08803828
:1001C000D3020318E7280130D402031CF628FA0AE8
:1001D000031DF628F90A031DF628F80A031DF62860
:1001E000F70A03190029F80CF90CFA0C4A08D50093
:1001F0004E08D506D51FFE28F8170429F813042940
:10020000F701F801F901FA018A110A12D72C5530C9
:1002100084008313000803191B290130F800F7013B
:10022000F70B1029F80B0F294A30F700F70B1629A6
:100230001929800B0D2908005C1820290712212993
:10024000071620122008831687008312DC182A293B
:1002500087122B298716A012200883168700831285
:100260005C19342907133529071720132008831632
:1002700087008312DC193E2987133F298717A013B3
:1002800020088316870000008312201020088316A0
:100290008700831207144C2920102008831687003A
:1002A000831207100800A01020088316870083120D
:1002B00087101330F700F70B5B295E29D908031963
:1002C0006829A010200883168700831287146E29DE
:1002D000A0102008831687008312871000002010CA
:1002E000200883168700831207105A0EDB000F3098
:1002F000DB055B08DC001C215A080F39DB00DC0041
:100300001C210800A0102008831687008312871084
:100310002010200883168700831207100F30D500A5
:100320000721C5014508023C031C9E290330DC005F
:100330001C210530D5000721C50A92290230DC00B6
:100340001C21C5014508033C031CB22945080420B3
:10035000C600D9014608DA0053210530D50007212F
:10036000C50AA2298A110A12E02C54080C3A031972
:10037000C029063A0319C829023A0319DE29E329DC
:10038000D9010130DA0053210230D5000721E929D3
:100390000130D5000230D600560BCF29D22940308B
:1003A000D700D329D70101305502D7075708803825
:1003B000D800D9015808DA005321E929D9011030B1
:1003C000DA005321E9290130D9005408DA00532119
:1003D000E92908000B08C5008B13831603178C1737
:1003E0000C140000000083120C087F390319312A15
:1003F0000313C60003170D080313C70003170F08E4
:100400000313C8004608D400B521470803178D0020
:100410000313480803178F0083168C170C14000071
:10042000000083120C0D0E0D7F390319312A0313BE
:10043000C60003170D080313C70003170F080313A3
:10044000C8004608D400B521470803178D000313E0
:10045000480803178F008D0A03198F0A0313ED292B
:1004600003170313C51B8B1708002E084B02CD0082
:100470004C08CE002F08031C2F0FCE024C08AF00F3
:100480004B08AE00A101CE08031D4A2A4D082102E7
:1004900003186A2AAC0A0319AD0AAD1B582AAD0825
:1004A000031D562A2C08033C0318582AAD01AC0141
:1004B00039302C07840083132D1883170008CF00D0
:1004C0008316860183124F0886000A30D500072163
:1004D000A10A432A080049080319DB2AD1004D0864
:1004E0000319DB2AD10703187C2A7F30D102031CB1
:1004F000DB2A0319DB2A802A8130D1070318DB2A83
:100500005108F700F801F901FA014A08D500D5179A
:100510004B08D4004C08D3001830D100D201531C32
:10052000A92A5008FA07031C9B2AF90A031D9B2AD3
:10053000F80A0319D2174F08F907031CA22AF80A70
:100540000319D2174E08CB00CB174B08F807031836
:10055000D217D20DF80CF90CFA0CD50CD40CD30C24
:100560000310D10B8E2A0130F7070318DB2AF81B82
:10057000C02AD50DFA0DF90DF80DF7030319DB2A82
:10058000D51FD12AFA0A031DD12AF90A031DD12A3F
:10059000F80A031DD12AF80CF90CFA0CF70A031912
:1005A000DB2A4A08D2004E08D206D21FD92AF817F1
:1005B000DF2AF813DF2AF701F801F901FA01080030
:1005C0008E30F7004908F7024A08F9004B08F80096
:1005D000F917F7080319F72A0310F908031DF32A7E
:1005E000F8080319F72AF90CF80CF70BEC2ACA1FC4
:1005F000FE2AF809F909F80A0319F90A080031086E
:100600004802031C362B031D092B47083002031830
:10061000362B4808CA004708C9001E207A08CC00BB
:100620007908CB007808CA007708C9003508D000DF
:100630003408CF003308CE003208CD006B227A0890
:10064000CC007908CB007808CA007708C900E022FE
:100650007908CA007808C9007908CC007808CB006E
:1006600035224808B1004708B0009B2B48083102EA
:10067000031C9B2B031D402B3008470203189B2BA8
:100680004808CA004708C9001E207A08CC0079082B
:10069000CB007808CA007708C9003508D0003408B4
:1006A000CF003308CE003208CD006B227A08CC0090
:1006B0007908CB007808CA007708C900E0227908D9
:1006C000CA007808C9004A08CC004908CB004B088A
:1006D0002E02CD002F08CE004C08031C4C0FCE027A
:1006E0004C08AF004B08AE00A101CE08031D7C2BC7
:1006F0004D0821020318972B2C080319AD03AC03F6
:10070000AD1F852BAD010330AC0039302C078400C0
:1007100083132D1883170008CF00831686018312D8
:100720004F0886000A30D5000721A10A752B48081A
:10073000B1004708B0003108CA003008C900CC0138
:100740006430CB001030CD00F701FA01CA0CC90C9F
:10075000031CB02B4B08F7070318FA0A4C08FA07DA
:10076000FA0CF70CF90CF80CCD0BA62B7908CA0083
:100770007808C9000C30D400B521103084004A0834
:10078000CC004908CB00D3010408D2005310831BCE
:1007900053144C0EF038CE00CE07E23ECF00323E6E
:1007A000D1004C080F39CF07CF07D107E93ED00061
:1007B000D007D0074B0E0F39D007D107D00DD10D80
:1007C000D109D10D4B080F39D107CE0D0730CD001F
:1007D0000A30D107D003031CE92BD007CF03031C39
:1007E000ED2BCF07CE03031CF12BCE07CD03031C4B
:1007F000F52B4D30840083130730520552138407C4
:1008000051300402031952170008F700031D102C81
:10081000521B102C521A222CD219102C2030132CBF
:10082000D21552123030F707CC010408CB004C101F
:10083000831B4C147708D400B5214B088400831324
:100840004C188317840A521F002C0E3003178D009A
:1008500000308F00031004300313CB000B08CC00D2
:100860008B13831603178C170C1400000000031859
:10087000602C83120C087F390313CD0003170D0879
:100880000313CE0003170F080313CF004D08D40045
:10089000B5214E0803178D0003134F0803178F006F
:1008A00083168C170C140000000083120313CB0B6B
:1008B0005A2C5D2C83160317602C7F2C831603178C
:1008C00083120C0D0E0D7F390313CD0003170D0895
:1008D0000313CE0003170F080313CF004D08D400F5
:1008E000B5214E0803178D0003134F0803178F001F
:1008F0008D0A03198F0A03100313CB0B312CCC1B69
:100900008B178A110A12292D840183131F30830546
:10091000FF30A0000330A100A201AD01AC01AF0186
:10092000AE01B101B00183161F149F141F159F1152
:1009300007309C000C308312B9000630BA00033037
:10094000BB000930BC00BD00BE012330BF00C001A8
:100950000930C100C2011430C300C401AB013C30F6
:10096000AA00A901A730A8002908CA002808C900C0
:100970001E207708C5007808C6007908C7007A08E5
:10098000C8002B08CA002A08C9001E204808CC004D
:100990004708CB004608CA004508C9007A08D000BD
:1009A0007908CF007808CE007708CD003B287A0878
:1009B000B5007908B4007808B3007708B20082293E
:1009C0006430D500072183161F109F141F159F1533
:1009D0001F1783121F179F1383169F1783121F144D
:1009E0000030F8001F08C73978049F000630F70070
:1009F000F70BF82C0000113003178D0000308F002A
:100A00000313EA21CC017530CB003522AF01AE01D2
:100A10001A3003178D0000308F000313EA21A20162
:100A20002208033C031C2B2D6330F700F70B162D17
:100A3000192D0310220D3D3E84008313840A000803
:100A4000C60084030008C5004608C8004508C70062
:080A5000FF2AA20A102D630029
:02400E00713F00
:00000001FF
;PIC16F877A
;CRC=5A30  CREATED="30-mar-16 08:24"
